:0A0000000C9462000C9400000C94B4
:10000A0000000C9400000C9400000C9400000C9466
:10001A0000000C9400000C9400000C9400000C9456
:10002A0000000C9400000C9400000C9400000C9446
:10003A0000000C9400000C9400000C9400000C9436
:10004A0000000C9400000C9400001027E8036400E0
:10005A000A00010000100001100001000100010067
:10006A007C053D3D3D3D3D3D3D3D3D3D3D3D3D3DAF
:10007A003D3D3D3D3D3D007C20253034642F2530FB
:10008A0032642F25303264207C007C2020253032D7
:10009A00643A253032643A2530326420207C0000EC
:1000AA0004000A00660002008A026A001500600263
:1000BA006C00150075026C000000F894EE27ECBB8A
:1000CA00F1E0FBBFEBBFE5BF8DE0A2E0BB27ED93FC
:1000DA008A95E9F780E098E0A0E6ED930197E9F7C1
:1000EA00EAEAF0E085919591009761F0A591B591C2
:1000FA0005901590BF01F00105900D920197E1F767
:10010A00FB01F0CFEFE5EDBFE8E0EEBFC0E6D2E0DD
:10011A000C943801A8EEB3E00E94FB030E9461032D
:10012A000E946A030E9461030AC0A0E6B2E00E942C
:10013A0071010E946A03A5E7B2E00E947101ADE075
:10014A00C4D00895B09B05C0E5DFF20131962F01B6
:10015A003197EBE3F0E04E165F062CF04424552469
:10016A00F30131963F01EBE3F0E06E167F062CF0C7
:10017A0066247724F40131964F01E8E1F0E08E1607
:10018A009F062CF00E94B103F50131965F01E1E070
:10019A00F0E0CE16DF062CF0E6E0F0E0EC15FD0507
:1001AA000CF40BC0EEE1F0E0AE16BF062CF0F6013F
:1001BA0031966F01AA24BB2415C0E7E0F0E0CE1601
:1001CA00DF062CF0ECE0F0E0EC15FD050CF40AC0BB
:1001DA00EFE1F0E0AE16BF062CF0F60131966F01A2
:1001EA00AA24BB24ECE0F0E0CE16DF0624F0CC24EF
:1001FA00DD240E94B8030895B19904C0F301319631
:10020A003F0193DFB29904C0F40131964F018DDFAB
:10021A00B39904C0F50131965F0187DFB49904C030
:10022A00F60131966F0181DFB59903C00E94B803C8
:10023A007CDFB69908C0AAE8B2E0ED91FD9131974A
:10024A00FE93EE9372DFB7990DC00E94B103E1E00D
:10025A00F0E05F016F01ECE7F5E0E0938A02F093CA
:10026A008B0263DF0895EFEFEABBE0E0EBBBE7BB8D
:10027A00E8BBE4BBE5BBE1BBE2BBE3BFE2BFECBF6B
:10028A00EFBDEEBDEDBDECBDE7BDE6BDEBBDEABD24
:10029A00E9BDE8BDE2BDE5BDE4BDE3BDE9BFE5BF3B
:1002AA00E4BFEBB9E8E1EAB9E6E8E0BDE0E0E0BDC9
:1002BA00E3E3E9B9E0E8E8B9E0E0E0BFE6B9EDB9BF
:1002CA00E6BF9ADF3FDFFDCFFFCFAA935D9BFECF4C
:1002DA00E881ECB921960895BA93AA931A93A98151
:1002EA00BA81ED91A983BA831E2FE03019F0A12FAC
:1002FA00ECDFF5CFAAE0E9DF188108C0BA93AA9328
:10030A00AA81E3DFA881B9810E94C00323960895D8
:10031A00BA93AA931A930A93AA81BB8112960E944E
:10032A001204309729F1AA81BB8114960E94120403
:10033A008F01309761F00230E0E01E0780F0F8018B
:10034A0031978F01AA81BB811496ED93FC93AA8100
:10035A00BB8112960E94C0033197AC81A083AA8107
:10036A00BB810E941204FF2312F00E94C00306C040
:10037A00AA81BB81EFEFFFEFED93FC93198108810E
:10038A0025960895BA93AA9326970E941F0410E00F
:10039A00AC85BD85E0E0F0E0ED93FC93EA89FB894A
:1003AA003196EA8BFB8B3197E4912E2FE03009F4DA
:1003BA0015C1E12FE03039F4253211F411E002C001
:1003CA000E94C6030AC1E130A9F4253219F40E9439
:1003DA00C60302C112E040E000E02D3211F401E050
:1003EA00FCC02B3211F44BE2F8C0203211F440E287
:1003FA00F4C002C0E23039F450E013E0203311F4C3
:10040A000068EBC003C0E33009F0E7C0203310F006
:10041A002A3308F007C0AAE05A9F502DE22FE05372
:10042A005E0FDBC0E22FE33649F40E94CD03E88970
:10043A00F989A481AA930E94D303CEC0E33741F479
:10044A000E94CD030E94D9030E9448031E2F0AC0AE
:10045A00E03761F40E94CD030E94D9030E9454033D
:10046A001E2F086002600F7730E034C0E43611F0C6
:10047A00E93611F4046002C0E53731F4E4E5F0E04E
:10048A00EE83FF8315E00CC0E83511F4086003C061
:10049A00E83709F0A1C0EEE5F0E0EE83FF8314E04F
:1004AA0002FF14C00E94CD030E94E303AB85AA2376
:1004BA003AF4EA85FB850E940904EA87FB874DE244
:1004CA00403011F01F5F01C00B7F04C00E94CD03B2
:1004DA000E94E30300FD11C0151778F407FF08C056
:1004EA0002FF04C00B7F242F115001C020E301C07A
:1004FA0020E20E94C6035150EFCF312F01FF17C0EF
:10050A003030A1F003FF06C0EE81FF812591EE8312
:10051A00FF8305C0AE81BF812D91AE83BF830E9448
:10052A00C603503009F051503150EACF4BC020E396
:10053A00EE81FF810E941604E887F987EE81FF8128
:10054A003296EE83FF83E885F985AA85BB85AE17C7
:10055A00BF0750F02F5FA885B985EA85FB85EA1B9E
:10056A00FB0BEA87FB87EFCF2A3328F003FF02C091
:10057A00295F01C0295D04FD1AC0213320F4A88532
:10058A00B985119709F409C0531710F000FF01C08B
:10059A0013C020E207FF0BC020E3006102FF07C07F
:1005AA000B7F4A930E94D303503009F051500E94A6
:1005BA00C603503009F051503150A885B9851297B9
:1005CA0008F0B5CF00FF08C0503031F05150E0E2DA
:1005DA00EA930E94D303F8CF10E0E0CEAC85BD8544
:1005EA000E9412040E94260464960895FF92F82E2F
:1005FA0026970E9421040E94EB03309719F4EFEF2B
:10060A00FFEF1DC0DE0116960E9405048D010E94AF
:10061A00EB03EE83FF83E0E0E887E987DE011A96C1
:10062A000E94F203EDE8F1E0FA93EA93DE011A96EA
:10063A00A9DE9F01AE81BF81E0E0EC93F9010E943F
:10064A0028042A96FF900895FF92F82E26971A9367
:10065A000A93DE0114960E9405048D01E0E0EC8302
:10066A00ED83EE83EF83DE0118960E94F203E3E83E
:10067A00F1E0FA93EA93DE01189684DE1981088183
:10068A002896FF900895BA93AA93A991B991EE2753
:10069A00FF276D91662311F03196FBCF0895BA9327
:1006AA00AA93AA27BB27E991F9910590002011F096
:1006BA001196FBCFFD010895ECE6F0E0FA93EA9378
:1006CA0080E00E94290322960895ADE00E946A0103
:1006DA00ECE8F2E0FA93EA93E1E8F0E0FA93EA93BD
:1006EA00E0918A02F0918B020E940D040E941A0482
:1006FA00F6010E940D040E941A04F5010E940D04DD
:10070A000E941A048CE00E94FB026096ACE8B2E0F8
:10071A000E947101ECE8F2E0FA93EA93E4E9F0E06E
:10072A00FA93EA93F4010E940D040E941A04F30159
:10073A000E940D040E941A04F2010E940D040E94F4
:10074A001A048CE00E94FB026096ACE8B2E00E94B8
:10075A007101ADE00C946A0144245524662477247F
:10076A00882499240895AAE8B2E0ED91FD91319682
:10077A00FE93EE930895ED91FD913196FE93EE93DB
:10078A0008952A93AD85BE85EF85F8890995089560
:10079A00E889F9893497E88BF98B0895AD85BE8588
:1007AA00EF85F88909950895A889B98914960E9450
:1007BA001204EE83FF83AE81BF810895A889B989A7
:1007CA0014960E941204EA87FB870895DE011C969C
:1007DA000E9405040E94120408950E9405040E94C2
:1007EA001204FA93EA931A930A930895109639F029
:1007FA00A8958AEF90E00197F1F71197C9F7089544
:10080A000024AF0DB01D0895F195E195F0400895CB
:10081A006F2F660F660B762F0895ED91FC91119755
:10082A0008950590F491E02D08957A936A93FA93C6
:10083A00EA9308955A934A933A932A931A930A93F6
:10084A0008955D814C813B812A811981088108952F
:00000001FF
